{
  "_format": "hh-sol-artifact-1",
  "contractName": "CertificateRegistry",
  "sourceName": "contracts/CertificateRegistry.sol",
  "abi": [
    {
      "inputs": [],
      "stateMutability": "nonpayable",
      "type": "constructor"
    },
    {
      "inputs": [
        {
          "internalType": "address",
          "name": "owner",
          "type": "address"
        }
      ],
      "name": "OwnableInvalidOwner",
      "type": "error"
    },
    {
      "inputs": [
        {
          "internalType": "address",
          "name": "account",
          "type": "address"
        }
      ],
      "name": "OwnableUnauthorizedAccount",
      "type": "error"
    },
    {
      "inputs": [],
      "name": "ReentrancyGuardReentrantCall",
      "type": "error"
    },
    {
      "anonymous": false,
      "inputs": [
        {
          "indexed": true,
          "internalType": "uint256",
          "name": "certificateId",
          "type": "uint256"
        },
        {
          "indexed": true,
          "internalType": "address",
          "name": "organization",
          "type": "address"
        },
        {
          "indexed": true,
          "internalType": "address",
          "name": "recipient",
          "type": "address"
        },
        {
          "indexed": false,
          "internalType": "string",
          "name": "name",
          "type": "string"
        },
        {
          "indexed": false,
          "internalType": "string",
          "name": "course",
          "type": "string"
        },
        {
          "indexed": false,
          "internalType": "uint256",
          "name": "issuedAt",
          "type": "uint256"
        }
      ],
      "name": "CertificateIssued",
      "type": "event"
    },
    {
      "anonymous": false,
      "inputs": [
        {
          "indexed": true,
          "internalType": "address",
          "name": "organization",
          "type": "address"
        },
        {
          "indexed": true,
          "internalType": "address",
          "name": "approver",
          "type": "address"
        }
      ],
      "name": "OrganizationApproved",
      "type": "event"
    },
    {
      "anonymous": false,
      "inputs": [
        {
          "indexed": true,
          "internalType": "address",
          "name": "organization",
          "type": "address"
        },
        {
          "indexed": true,
          "internalType": "address",
          "name": "revoker",
          "type": "address"
        }
      ],
      "name": "OrganizationRevoked",
      "type": "event"
    },
    {
      "anonymous": false,
      "inputs": [
        {
          "indexed": true,
          "internalType": "address",
          "name": "previousOwner",
          "type": "address"
        },
        {
          "indexed": true,
          "internalType": "address",
          "name": "newOwner",
          "type": "address"
        }
      ],
      "name": "OwnershipTransferred",
      "type": "event"
    },
    {
      "inputs": [
        {
          "internalType": "address",
          "name": "_organization",
          "type": "address"
        }
      ],
      "name": "approveOrganization",
      "outputs": [],
      "stateMutability": "nonpayable",
      "type": "function"
    },
    {
      "inputs": [
        {
          "internalType": "address",
          "name": "",
          "type": "address"
        }
      ],
      "name": "approvedOrganizations",
      "outputs": [
        {
          "internalType": "bool",
          "name": "",
          "type": "bool"
        }
      ],
      "stateMutability": "view",
      "type": "function"
    },
    {
      "inputs": [
        {
          "internalType": "uint256",
          "name": "",
          "type": "uint256"
        }
      ],
      "name": "certificates",
      "outputs": [
        {
          "internalType": "address",
          "name": "organization",
          "type": "address"
        },
        {
          "internalType": "address",
          "name": "recipient",
          "type": "address"
        },
        {
          "internalType": "string",
          "name": "name",
          "type": "string"
        },
        {
          "internalType": "string",
          "name": "course",
          "type": "string"
        },
        {
          "internalType": "uint256",
          "name": "issuedAt",
          "type": "uint256"
        },
        {
          "internalType": "uint256",
          "name": "certificateId",
          "type": "uint256"
        },
        {
          "internalType": "bool",
          "name": "exists",
          "type": "bool"
        }
      ],
      "stateMutability": "view",
      "type": "function"
    },
    {
      "inputs": [
        {
          "internalType": "uint256",
          "name": "_certificateId",
          "type": "uint256"
        }
      ],
      "name": "getCertificate",
      "outputs": [
        {
          "internalType": "address",
          "name": "organization",
          "type": "address"
        },
        {
          "internalType": "address",
          "name": "recipient",
          "type": "address"
        },
        {
          "internalType": "string",
          "name": "name",
          "type": "string"
        },
        {
          "internalType": "string",
          "name": "course",
          "type": "string"
        },
        {
          "internalType": "uint256",
          "name": "issuedAt",
          "type": "uint256"
        },
        {
          "internalType": "uint256",
          "name": "certificateId",
          "type": "uint256"
        }
      ],
      "stateMutability": "view",
      "type": "function"
    },
    {
      "inputs": [
        {
          "internalType": "uint256[]",
          "name": "_certificateIds",
          "type": "uint256[]"
        }
      ],
      "name": "getCertificatesBatch",
      "outputs": [
        {
          "components": [
            {
              "internalType": "address",
              "name": "organization",
              "type": "address"
            },
            {
              "internalType": "address",
              "name": "recipient",
              "type": "address"
            },
            {
              "internalType": "string",
              "name": "name",
              "type": "string"
            },
            {
              "internalType": "string",
              "name": "course",
              "type": "string"
            },
            {
              "internalType": "uint256",
              "name": "issuedAt",
              "type": "uint256"
            },
            {
              "internalType": "uint256",
              "name": "certificateId",
              "type": "uint256"
            },
            {
              "internalType": "bool",
              "name": "exists",
              "type": "bool"
            }
          ],
          "internalType": "struct CertificateRegistry.Certificate[]",
          "name": "",
          "type": "tuple[]"
        }
      ],
      "stateMutability": "view",
      "type": "function"
    },
    {
      "inputs": [],
      "name": "getCurrentCertificateId",
      "outputs": [
        {
          "internalType": "uint256",
          "name": "",
          "type": "uint256"
        }
      ],
      "stateMutability": "view",
      "type": "function"
    },
    {
      "inputs": [
        {
          "internalType": "address",
          "name": "_organization",
          "type": "address"
        }
      ],
      "name": "getOrganizationCertificates",
      "outputs": [
        {
          "internalType": "uint256[]",
          "name": "",
          "type": "uint256[]"
        }
      ],
      "stateMutability": "view",
      "type": "function"
    },
    {
      "inputs": [
        {
          "internalType": "address",
          "name": "_recipient",
          "type": "address"
        }
      ],
      "name": "getRecipientCertificates",
      "outputs": [
        {
          "internalType": "uint256[]",
          "name": "",
          "type": "uint256[]"
        }
      ],
      "stateMutability": "view",
      "type": "function"
    },
    {
      "inputs": [],
      "name": "getTotalCertificates",
      "outputs": [
        {
          "internalType": "uint256",
          "name": "",
          "type": "uint256"
        }
      ],
      "stateMutability": "view",
      "type": "function"
    },
    {
      "inputs": [
        {
          "internalType": "address",
          "name": "_organization",
          "type": "address"
        }
      ],
      "name": "isOrganizationApproved",
      "outputs": [
        {
          "internalType": "bool",
          "name": "",
          "type": "bool"
        }
      ],
      "stateMutability": "view",
      "type": "function"
    },
    {
      "inputs": [
        {
          "internalType": "address",
          "name": "_recipient",
          "type": "address"
        },
        {
          "internalType": "string",
          "name": "_name",
          "type": "string"
        },
        {
          "internalType": "string",
          "name": "_course",
          "type": "string"
        }
      ],
      "name": "issueCertificate",
      "outputs": [
        {
          "internalType": "uint256",
          "name": "",
          "type": "uint256"
        }
      ],
      "stateMutability": "nonpayable",
      "type": "function"
    },
    {
      "inputs": [
        {
          "internalType": "address",
          "name": "",
          "type": "address"
        },
        {
          "internalType": "uint256",
          "name": "",
          "type": "uint256"
        }
      ],
      "name": "organizationCertificates",
      "outputs": [
        {
          "internalType": "uint256",
          "name": "",
          "type": "uint256"
        }
      ],
      "stateMutability": "view",
      "type": "function"
    },
    {
      "inputs": [],
      "name": "owner",
      "outputs": [
        {
          "internalType": "address",
          "name": "",
          "type": "address"
        }
      ],
      "stateMutability": "view",
      "type": "function"
    },
    {
      "inputs": [
        {
          "internalType": "address",
          "name": "",
          "type": "address"
        },
        {
          "internalType": "uint256",
          "name": "",
          "type": "uint256"
        }
      ],
      "name": "recipientCertificates",
      "outputs": [
        {
          "internalType": "uint256",
          "name": "",
          "type": "uint256"
        }
      ],
      "stateMutability": "view",
      "type": "function"
    },
    {
      "inputs": [],
      "name": "renounceOwnership",
      "outputs": [],
      "stateMutability": "nonpayable",
      "type": "function"
    },
    {
      "inputs": [
        {
          "internalType": "address",
          "name": "_organization",
          "type": "address"
        }
      ],
      "name": "revokeOrganization",
      "outputs": [],
      "stateMutability": "nonpayable",
      "type": "function"
    },
    {
      "inputs": [
        {
          "internalType": "address",
          "name": "newOwner",
          "type": "address"
        }
      ],
      "name": "transferOwnership",
      "outputs": [],
      "stateMutability": "nonpayable",
      "type": "function"
    },
    {
      "inputs": [
        {
          "internalType": "uint256",
          "name": "_certificateId",
          "type": "uint256"
        }
      ],
      "name": "verifyCertificate",
      "outputs": [
        {
          "internalType": "bool",
          "name": "valid",
          "type": "bool"
        },
        {
          "internalType": "address",
          "name": "organization",
          "type": "address"
        },
        {
          "internalType": "address",
          "name": "recipient",
          "type": "address"
        },
        {
          "internalType": "string",
          "name": "name",
          "type": "string"
        },
        {
          "internalType": "string",
          "name": "course",
          "type": "string"
        }
      ],
      "stateMutability": "view",
      "type": "function"
    }
  ],
  "bytecode": "0x6080604052348015600f57600080fd5b503380603557604051631e4fbdf760e01b81526000600482015260240160405180910390fd5b603c816049565b5060018080556006556099565b600080546001600160a01b038381166001600160a01b0319831681178455604051919092169283917f8be0079c531659141344cd1fd0a4f28419497f9722a3daafe3b4186f6b6457e09190a35050565b611b12806100a86000396000f3fe608060405234801561001057600080fd5b50600436106101165760003560e01c80638da5cb5b116100a2578063b771600711610071578063b771600714610296578063d8145718146102a9578063e98ac4d8146102cc578063ed1b84d6146102df578063f2fde38b146102e757600080fd5b80638da5cb5b1461020c5780639cc5276114610227578063ac0696ab1461023a578063b2dcc36e1461025a57600080fd5b806352bc3320116100e957806352bc3320146101a2578063663b3e22146101c3578063715018a6146101e957806373ae3899146101f15780637843bb791461020457600080fd5b80631692a9421461011b578063198224711461014857806329cd14bb1461015d57806351640fee1461017d575b600080fd5b61012e61012936600461141c565b6102fa565b60405161013f95949392919061147b565b60405180910390f35b61015b6101563660046114e9565b610502565b005b61017061016b366004611552565b6105ee565b60405161013f9190611603565b61019061018b36600461141c565b6108ae565b60405161013f969594939291906116d3565b6101b56101b0366004611727565b610ad7565b60405190815260200161013f565b6101d66101d136600461141c565b610b08565b60405161013f9796959493929190611751565b61015b610c67565b6101b56101ff366004611727565b610c7b565b6101b5610c97565b6000546040516001600160a01b03909116815260200161013f565b61015b6102353660046114e9565b610cad565b61024d6102483660046114e9565b610e00565b60405161013f91906117b1565b6102866102683660046114e9565b6001600160a01b031660009081526003602052604090205460ff1690565b604051901515815260200161013f565b61024d6102a43660046114e9565b610f22565b6102866102b73660046114e9565b60036020526000908152604090205460ff1681565b6101b56102da366004611864565b611009565b6006546101b5565b61015b6102f53660046114e9565b611337565b60008181526002602052604081206006015481908190606090819060ff16610348575050604080516020808201835260008083528351918201909352828152919450849350839250906104f9565b6000868152600260208181526040808420815160e08101835281546001600160a01b03908116825260018301541693810193909352928301805492939291840191610392906118dd565b80601f01602080910402602001604051908101604052809291908181526020018280546103be906118dd565b801561040b5780601f106103e05761010080835404028352916020019161040b565b820191906000526020600020905b8154815290600101906020018083116103ee57829003601f168201915b50505050508152602001600382018054610424906118dd565b80601f0160208091040260200160405190810160405280929190818152602001828054610450906118dd565b801561049d5780601f106104725761010080835404028352916020019161049d565b820191906000526020600020905b81548152906001019060200180831161048057829003601f168201915b5050505050815260200160048201548152602001600582015481526020016006820160009054906101000a900460ff16151515158152505090506001816000015182602001518360400151846060015195509550955095509550505b91939590929450565b61050a611375565b806001600160a01b03811661053a5760405162461bcd60e51b815260040161053190611911565b60405180910390fd5b6001600160a01b03821660009081526003602052604090205460ff166105a25760405162461bcd60e51b815260206004820152601960248201527f4f7267616e697a6174696f6e206e6f7420617070726f766564000000000000006044820152606401610531565b6001600160a01b038216600081815260036020526040808220805460ff19169055513392917f46506f64247434049ec19abb44db6be2cf36e762fc7977e502afbe3ba8d9f85b91a35050565b60606000825167ffffffffffffffff81111561060c5761060c61150b565b60405190808252806020026020018201604052801561069157816020015b61067e6040518060e0016040528060006001600160a01b0316815260200160006001600160a01b03168152602001606081526020016060815260200160008152602001600081526020016000151581525090565b81526020019060019003908161062a5790505b50905060005b83518110156108a757600260008583815181106106b6576106b661193a565b60209081029190910181015182528101919091526040016000206006015460ff161561089f57600260008583815181106106f2576106f261193a565b6020908102919091018101518252818101929092526040908101600020815160e08101835281546001600160a01b039081168252600183015416938101939093526002810180549192840191610747906118dd565b80601f0160208091040260200160405190810160405280929190818152602001828054610773906118dd565b80156107c05780601f10610795576101008083540402835291602001916107c0565b820191906000526020600020905b8154815290600101906020018083116107a357829003601f168201915b505050505081526020016003820180546107d9906118dd565b80601f0160208091040260200160405190810160405280929190818152602001828054610805906118dd565b80156108525780601f1061082757610100808354040283529160200191610852565b820191906000526020600020905b81548152906001019060200180831161083557829003601f168201915b5050509183525050600482015460208201526005820154604082015260069091015460ff16151560609091015282518390839081106108935761089361193a565b60200260200101819052505b600101610697565b5092915050565b6000818152600260205260408120600601548190606090819083908190879060ff1661091c5760405162461bcd60e51b815260206004820152601a60248201527f436572746966696361746520646f6573206e6f742065786973740000000000006044820152606401610531565b6000888152600260208181526040808420815160e08101835281546001600160a01b03908116825260018301541693810193909352928301805492939291840191610966906118dd565b80601f0160208091040260200160405190810160405280929190818152602001828054610992906118dd565b80156109df5780601f106109b4576101008083540402835291602001916109df565b820191906000526020600020905b8154815290600101906020018083116109c257829003601f168201915b505050505081526020016003820180546109f8906118dd565b80601f0160208091040260200160405190810160405280929190818152602001828054610a24906118dd565b8015610a715780601f10610a4657610100808354040283529160200191610a71565b820191906000526020600020905b815481529060010190602001808311610a5457829003601f168201915b50505091835250506004820154602080830191909152600583015460408084019190915260069093015460ff1615156060928301528351908401519284015191840151608085015160a090950151919e939d50919b509099509197509095509350505050565b60056020528160005260406000208181548110610af357600080fd5b90600052602060002001600091509150505481565b60026020819052600091825260409091208054600182015492820180546001600160a01b03928316949092169291610b3f906118dd565b80601f0160208091040260200160405190810160405280929190818152602001828054610b6b906118dd565b8015610bb85780601f10610b8d57610100808354040283529160200191610bb8565b820191906000526020600020905b815481529060010190602001808311610b9b57829003601f168201915b505050505090806003018054610bcd906118dd565b80601f0160208091040260200160405190810160405280929190818152602001828054610bf9906118dd565b8015610c465780601f10610c1b57610100808354040283529160200191610c46565b820191906000526020600020905b815481529060010190602001808311610c2957829003601f168201915b50505050600483015460058401546006909401549293909290915060ff1687565b610c6f611375565b610c7960006113a2565b565b60046020528160005260406000208181548110610af357600080fd5b60006001600654610ca89190611966565b905090565b610cb5611375565b806001600160a01b038116610cdc5760405162461bcd60e51b815260040161053190611911565b6001600160a01b03821660009081526003602052604090205460ff1615610d455760405162461bcd60e51b815260206004820152601d60248201527f4f7267616e697a6174696f6e20616c726561647920617070726f7665640000006044820152606401610531565b6000546001600160a01b03166001600160a01b0316826001600160a01b031603610db15760405162461bcd60e51b815260206004820152601f60248201527f4f776e65722063616e6e6f7420626520616e206f7267616e697a6174696f6e006044820152606401610531565b6001600160a01b038216600081815260036020526040808220805460ff19166001179055513392917fb177c998d0a3a4ea4a1395d8da6b0fa61b33c49405727c71b6a8fbbdb4795f2f91a35050565b6060816001600160a01b038116610e295760405162461bcd60e51b815260040161053190611911565b6001600160a01b038316600090815260056020526040812080549091819003610e825760005b604051908082528060200260200182016040528015610e78578160200160208202803683370190505b5093505050610f1c565b60008167ffffffffffffffff811115610e9d57610e9d61150b565b604051908082528060200260200182016040528015610ec6578160200160208202803683370190505b50905060005b82811015610f1657838181548110610ee657610ee661193a565b9060005260206000200154828281518110610f0357610f0361193a565b6020908102919091010152600101610ecc565b50935050505b50919050565b6060816001600160a01b038116610f4b5760405162461bcd60e51b815260040161053190611911565b6001600160a01b038316600090815260046020526040812080549091819003610f75576000610e4f565b60008167ffffffffffffffff811115610f9057610f9061150b565b604051908082528060200260200182016040528015610fb9578160200160208202803683370190505b50905060005b82811015610f1657838181548110610fd957610fd961193a565b9060005260206000200154828281518110610ff657610ff661193a565b6020908102919091010152600101610fbf565b3360009081526003602052604081205460ff166110835760405162461bcd60e51b815260206004820152603260248201527f4f6e6c7920617070726f766564206f7267616e697a6174696f6e732063616e2060448201527169737375652063657274696669636174657360701b6064820152608401610531565b836001600160a01b0381166110aa5760405162461bcd60e51b815260040161053190611911565b6110b26113f2565b60008451116110fa5760405162461bcd60e51b81526020600482015260146024820152734e616d652063616e6e6f7420626520656d70747960601b6044820152606401610531565b60008351116111445760405162461bcd60e51b8152602060048201526016602482015275436f757273652063616e6e6f7420626520656d70747960501b6044820152606401610531565b336001600160a01b0386160361119c5760405162461bcd60e51b815260206004820181905260248201527f43616e6e6f7420697373756520636572746966696361746520746f2073656c666044820152606401610531565b6006546040805160e0810182523381526001600160a01b0388811660208084019182528385018a8152606085018a9052426080860181905260a08601889052600160c08701819052600089815260029485905297909720865181549087166001600160a01b0319918216178255945197810180549890961697909416969096179093559151909182019061123090826119ce565b506060820151600382019061124590826119ce565b50608082015160048281019190915560a083015160058084019190915560c0909301516006928301805460ff19169115159190911790556001600160a01b038a166000908152602091825260408082208054600181810183559184528484200188905533835294835281208054948501815581529081209092018490558054916112ce83611a8d565b9190505550866001600160a01b0316336001600160a01b0316837fe5c93b1b606e0f12fc2c5dcd99b4a18014896946d3f9148e8902fa2e2f50cb4e89898660405161131b93929190611aa6565b60405180910390a450915061132f60018055565b509392505050565b61133f611375565b6001600160a01b03811661136957604051631e4fbdf760e01b815260006004820152602401610531565b611372816113a2565b50565b6000546001600160a01b03163314610c795760405163118cdaa760e01b8152336004820152602401610531565b600080546001600160a01b038381166001600160a01b0319831681178455604051919092169283917f8be0079c531659141344cd1fd0a4f28419497f9722a3daafe3b4186f6b6457e09190a35050565b60026001540361141557604051633ee5aeb560e01b815260040160405180910390fd5b6002600155565b60006020828403121561142e57600080fd5b5035919050565b6000815180845260005b8181101561145b5760208185018101518683018201520161143f565b506000602082860101526020601f19601f83011685010191505092915050565b85151581526001600160a01b0385811660208301528416604082015260a0606082018190526000906114af90830185611435565b82810360808401526114c18185611435565b98975050505050505050565b80356001600160a01b03811681146114e457600080fd5b919050565b6000602082840312156114fb57600080fd5b611504826114cd565b9392505050565b634e487b7160e01b600052604160045260246000fd5b604051601f8201601f1916810167ffffffffffffffff8111828210171561154a5761154a61150b565b604052919050565b60006020828403121561156457600080fd5b813567ffffffffffffffff81111561157b57600080fd5b8201601f8101841361158c57600080fd5b803567ffffffffffffffff8111156115a6576115a661150b565b8060051b6115b660208201611521565b918252602081840181019290810190878411156115d257600080fd5b6020850194505b838510156115f8578435808352602095860195909350909101906115d9565b979650505050505050565b6000602082016020835280845180835260408501915060408160051b86010192506020860160005b828110156116c757868503603f19018452815180516001600160a01b0390811687526020808301519091169087015260408082015160e09188018290529061167590880182611435565b90506060820151878203606089015261168e8282611435565b608084810151908a015260a080850151908a015260c093840151151593909801929092525050602093840193919091019060010161162b565b50929695505050505050565b6001600160a01b0387811682528616602082015260c0604082018190526000906116ff90830187611435565b82810360608401526117118187611435565b6080840195909552505060a00152949350505050565b6000806040838503121561173a57600080fd5b611743836114cd565b946020939093013593505050565b6001600160a01b0388811682528716602082015260e06040820181905260009061177d90830188611435565b828103606084015261178f8188611435565b6080840196909652505060a0810192909252151560c090910152949350505050565b602080825282518282018190526000918401906040840190835b818110156117e95783518352602093840193909201916001016117cb565b509095945050505050565b600082601f83011261180557600080fd5b813567ffffffffffffffff81111561181f5761181f61150b565b611832601f8201601f1916602001611521565b81815284602083860101111561184757600080fd5b816020850160208301376000918101602001919091529392505050565b60008060006060848603121561187957600080fd5b611882846114cd565b9250602084013567ffffffffffffffff81111561189e57600080fd5b6118aa868287016117f4565b925050604084013567ffffffffffffffff8111156118c757600080fd5b6118d3868287016117f4565b9150509250925092565b600181811c908216806118f157607f821691505b602082108103610f1c57634e487b7160e01b600052602260045260246000fd5b6020808252600f908201526e496e76616c6964206164647265737360881b604082015260600190565b634e487b7160e01b600052603260045260246000fd5b634e487b7160e01b600052601160045260246000fd5b8181038181111561197957611979611950565b92915050565b601f8211156119c957806000526020600020601f840160051c810160208510156119a65750805b601f840160051c820191505b818110156119c657600081556001016119b2565b50505b505050565b815167ffffffffffffffff8111156119e8576119e861150b565b6119fc816119f684546118dd565b8461197f565b6020601f821160018114611a305760008315611a185750848201515b600019600385901b1c1916600184901b1784556119c6565b600084815260208120601f198516915b82811015611a605787850151825560209485019460019092019101611a40565b5084821015611a7e5786840151600019600387901b60f8161c191681555b50505050600190811b01905550565b600060018201611a9f57611a9f611950565b5060010190565b606081526000611ab96060830186611435565b8281036020840152611acb8186611435565b91505082604083015294935050505056fea26469706673582212208ccb872fa6cfcfc60f3c1eda73869a468f2e55ed6a4f9c784afa5f8eb1f0496764736f6c634300081b0033",
  "linkReferences": {},
  "deployedLinkReferences": {}
}